:020000022000DC
:10600000000004205D630200456302004763020054
:10601000496302004B6302004D6302000000000070
:106020000000000000000000000000004F630200BC
:106030005163020000000000536302005563020038
:10604000C17F0200576302002582020057630200ED
:106050005763020057630200798002005763020011
:106060005763020057630200576302005763020040
:106070005763020057630200576302005763020030
:1060800057630200FD6E020057630200576302006F
:10609000996F02005763020099A40200576302003F
:1060A0005763020057630200576302005763020000
:1060B0005763020057630200000000000000000068
:1060C00057630200576302005763020057630200E0
:1060D00057630200576302005763020057630200D0
:1060E000576302005763020057630200000000007C
:1060F0000000000057630200000000005763020028
:10610000000000000000000000000000000000008F
:10611000000000000000000000000000000000007F
:10612000000000000000000000000000000000006F
:10613000000000000000000000000000000000005F
:10614000000000000000000000000000000000004F
:10615000000000000000000000000000000000003F
:10616000000000000000000000000000000000002F
:10617000000000000000000000000000000000001F
:10618000000000000000000000000000000000000F
:1061900000000000000000000000000000000000FF
:1061A00000000000000000000000000000000000EF
:1061B00000000000000000000000000000000000DF
:1061C00000000000000000000000000000000000CF
:1061D00000000000000000000000000000000000BF
:1061E00000000000000000000000000000000000AF
:1061F000000000000000000000000000000000009F
:10620000314932480A1A02D0072291438D4630495B
:1062100030480A1A06D00722914381F309880222E6
:1062200082F314882C482D492D4A00F03CF82D4863
:106230002D492E4A00F037F82D482E492E4A00F0FD
:1062400032F82E482E492F4A00F02DF82E482F49BB
:106250002F4A00F028F82F482F49304A00F023F841
:106260002F483049304A00F01EF8304830490022AB
:1062700000F024F82F483049002200F01FF82F4A80
:1062800090471F481F49884205D00268043003B474
:10629000904703BCF7E700208646EC46002000212B
:1062A000274A9047FEE7884207D0521A05D0037864
:1062B00001300B700131013AF9D17047884202D0A8
:1062C00002700130FAE770470000042000E003206C
:1062D000000004200000042014BA0200701D0020F9
:1062E0008C200020BC630200BC630200BAA902003B
:1062F00014BA0200701D0020701D0020C8AA020000
:10630000C8AA0200C8AA0200C8AA0200C8AA0200BD
:10631000C8AA0200C8AA0200C8AA020012BA020053
:1063200030BD02008C2000208C2000208C2000201A
:10633000402D0020402D0020402D002085630200CC
:10634000B9900200FEE7FEE7FEE7FEE7FEE7FEE7A4
:10635000FEE7FEE7FEE7FEE7704700BF1048804714
:1063600010484FF00701884385460F4880470F4883
:10637000016841F470010160BFF34F8FBFF36F8F6D
:10638000FFF73EBF0A480B490B4A884207D0521A12
:1063900005D0037801300B700131013AF9D1704713
:1063A00059630200000004201D7B020088ED00E01C
:0C63B000C8AA0200701D0020701D002013
:1063BC00F0B595B01D46164608460C4601F0C6FAD7
:1063CC001A9B0D93CDE9086500252B46082205A9DB
:1063DC0020460A958DF82C500C9501F0D4FA079BA9
:1063EC000293069B03939DF814308DF8115003F023
:1063FC000302012A1DD1BDF81420059DC3F3C2036D
:10640C00C2F383168DF81030B20008230EA9204673
:10641C0001F0B9FAC5F3952508AB0093324602ABEF
:10642C000EA9284600F036FC204601F093FA15B070
:10643C00F0BD022AF8D1BDF81650C3F3C203C5F360
:10644C0089158DF810300827082D2E4628BF0826F0
:10645C003B4632460EA9204601F095FAAD1B08AB1F
:10646C0002AA31460EA8374400F078FC002DEBD17F
:10647C00DAE70000014B01221A707047CD20002092
:10648C007047000070B5124D06460FCD88B06C46B3
:10649C000FC495E80F00002E84E80F004FF0FF3377
:1064AC004FF00602CDE90023CDE90233094A0A4830
:1064BC004FF0EB7308BF00226946069301F006FD0E
:1064CC0008B100F0A5FC054B1E7008B070BD00BFF4
:1064DC00C8AA020081640200701D00208C200020DC
:1064EC0007B5044B0093044A4023FFF761FF03B048
:1064FC005DF804FB096502008D20002038B50D4BBA
:10650C000D4D002018700D4804782D5DD2B21C463C
:10651C0065B1043002F0EAFA08B100F079FC084BDE
:10652C001A7812B12378002BFBD038BD0C3002F056
:10653C00C1F8F1E7CD200020C0270020701D0020FD
:10654C008C20002008B50848084A0378D35C3BB17E
:10655C00043002F077FABDE808400020FFF792BF44
:10656C000C3002F053F8F6E7701D0020C027002015
:10657C000120FFF787BF000008B5FFF7F9FF0448BB
:10658C00042100F0EFFA034B01225A7108BD00BF41
:10659C00B8AA0200841D0020037813F0040216D060
:1065AC0003F00303012B03D0022B09D00120704709
:1065BC000A6800880232C0F3831002440A60F5E7CF
:1065CC000B684288023303EB92130B60EEE7104624
:1065DC00704700002DE9F04F87B000230446861C5D
:1065EC000DF107000F4615468DF8073000F05CFEE4
:1065FC00454801683960D0E90132134401335B1A14
:10660C00824600F21C4700F5836900F21448B3423D
:10661C001CD30020002D73D004F00F039B0143F01A
:10662C00050363F30F00DAF80020DAF808301340A2
:10663C00033316444AF823009DF80700CAF800609B
:10664C0000F056FE012007B0BDE8F08F012138465E
:10665C0000F0AFFE484600F0C4FE404600F0C1FE1C
:10666C00DAF80400DAF808B0029000EA0B00033004
:10667C000AEB800002A9FFF78FFF029B50BB0BEACD
:10668C0003020AEB820203F1020CD268039201337B
:10669C0003EA0B0B0AEB8B0B02F00302012ADBF86B
:1066AC000C10CDF808C023D0022A16D083464046E1
:1066BC0000F09AFE10B1029BCAF8043059463846D5
:1066CC0000F077FEDAE901231344DAF800200133F5
:1066DC009B1A9CE70BEA0300C9E7BDF80E30C3F325
:1066EC00891303334FEA114B0CEB93030293DEE750
:1066FC00BDF80C30C3F383134FEA114B6344F5E739
:10670C00A40544F006008EE7A02100200B4B0C489A
:10671C00FF2210B59A600022C3F81824C3E90022A6
:10672C00C3F8142483F8202401F0C9F8044610B9E6
:10673C00044801F071F9204610BD00BFA0210020D3
:10674C008CAA02001CAB020030B50A4C71B10A4A8B
:10675C000A49121BD20800239A4201D1002030BDF5
:10676C0031F82350854202D00133F5E7034654F843
:10677C003300F4E704AA02008CAA0200701D00206A
:10678C00094B013903EBC000032909D8DFE801F0FC
:10679C000A0204060420704700797047407970475C
:1067AC00002070470220704704AA0200034BD3E973
:1067BC000030C31A58425841704700BFA021002036
:1067CC002DE9F04387B0FFF7F1FF0646002840F0B3
:1067DC00F9807D4DC5F81804BFF34F8F6B68AC681A
:1067EC0002932340033305EB830002A9FFF7D4FE89
:1067FC00029B18B1D5F81824002A5FD004EA0302D2
:10680C00991C013305EB8202234005EB8303D2680C
:10681C00DB68049302F00303022B0392029160D114
:10682C00BDF80E306948C3F38917502FB84628BFFE
:10683C004FF0500868F38F1308F10801ADF80E30D3
:10684C0001F055F80646002800F0A78001F07EF80C
:10685C000023082203A9304601F08BF8029924EAA0
:10686C0001020132B8EB820F4FEA820332D95FFA90
:10687C0088F85BB32140DCB2A8EB040803315FFA63
:10688C0088F9A046524C05EB81010823424630465C
:10689C0001F06FF834B108F108034A46214630463E
:1068AC0001F067F8029B033703EB97070297D5F8C3
:1068BC001834002B49D1D5F8104459E02A689A4273
:1068CC008FD86A60304607B0BDE8F08340491C465B
:1068DC009946DAE70C40E11C0823424605EB81019E
:1068EC00DDE7012B59D1BDF80C303848C3F38311C7
:1068FC00062928BF062161F3891302318900ADF8FE
:10690C000C3000F0F4FF0646002846D001F01EF8CB
:10691C000023082203A9304601F02BF80027BDF80C
:10692C000C20C2F38312BB00974203F10803BED2C2
:10693C0002994A1C21400331029205EB8101042289
:10694C00304601F016F80137E9E7304601F002F85D
:10695C00FFF72CFF80F00100C6B2B3E7E3685B7968
:10696C0023B1236831461B6820469847E3681C68AE
:10697C00002CF3D1304600F0EDFF0DF107008DF83F
:10698C00074000F091FCD5F818340BB9029B6B60F2
:10699C009DF8070000F0ACFCDAE7D5F8104454B9C8
:1069AC000C4B0D480D49C01AC008000440F0020001
:1069BC0000F062F8CCE7236820469B689847E368B0
:1069CC001C68ECE700267DE7A02100208CAA0200C1
:1069DC00AC21002004AA02002CAA020005AB020084
:1069EC002DE9F74F224D04460F46924601A901228C
:1069FC001846D5F808909B46FFF7ECFD20B3019E96
:106A0C004FF00008B21CD84508EB020126D11948FA
:106A1C00002100F09FFC80F31000000440EA1440B9
:106A2C00E400731C04F0380403EA090306EA0906BF
:106A3C0044F0010405EB8303033644EA881444EA6A
:106A4C008724D86045F8264095F820341BB1FFF711
:106A5C00B7FE0028FBD103B0BDE8F08F09EA0101B5
:106A6C0005EB81015AF82830CB6008F10108CAE720
:106A7C00A0210020BC25002000231A46FFF7B0BF40
:106A8C0007B50123019201AAFFF7AAFF03B05DF835
:106A9C0004FB07B5CDE9002302236A46FFF7A0FFEC
:106AAC0003B05DF804FB00002DE9F3472B4D0446C1
:106ABC00D01C8946164601A900228008AF68FFF752
:106ACC0089FDA8B3DDF80480AB6808F102000190E1
:106ADC00013338401B1AB6EB830F00F103004FEA69
:106AEC00830A05EB80002DD83246494603F0ACFEF4
:106AFC001B48002100F02EFC80F3100008F101036C
:106B0C003B4007EA0807220C05EB8303033742EAF4
:106B1C000040E400D86004F0380455F8273044F005
:106B2C00020444EA865203F47C131A4345F82720E6
:106B3C0095F820341BB1FFF743FE0028FBD102B0BF
:106B4C00BDE8F0875246494603F07EFEA6EB0A02EA
:106B5C0009EB0A0105F10C00C8E700BFA0210020D9
:106B6C00BC25002030B50F49D1F810240346002075
:106B7C00144634B9DC6820714AB9C1F8103422606B
:106B8C0030BDE4682579854206D02468F1E7D268E7
:106B9C00116821601360F3E701300A28E8D14FF047
:106BAC00FF30EDE7A0210020094A38B50123D2F8C7
:106BBC00104482F820341D4604B938BDE3685D7179
:106BCC00236820465B689847E3681C68F4E700BFBD
:106BDC00A021002007B503460846197A052911D0D3
:106BEC005B7A2BB1094A0A49019000F060FC0198CC
:106BFC000849019000F05BFC019803B05DF804EBD0
:106C0C0000F04ABC002AF8D0F2E700BF28AB020023
:106C1C002DAB0200CCB1020030B5C38885B0044660
:106C2C000D4633B1144A00921449154A284600F017
:106C3C003EFC217A05291DD0637A4BB1A088FFF761
:106C4C009FFD104B104953F82020284600F02FFCD4
:106C5C00227A0E4BA08853F8222003920021FFF7D2
:106C6C0073FD039A0A490346284605B0BDE8304037
:106C7C0000F01DBC05B030BD28AB020038AB0200E3
:106C8C0030AB0200B4AB02002DAB0200D8AB02005B
:106C9C0050AB02002DE9F04385B01F460C9D00233C
:106CAC0095F80C902B7306460C46904629463846B0
:106CBC00FFF7B2FFB8F1060F09D8DFE808F00412AD
:106CCC00181F283340003146284600F0F0FB002204
:106CDC0029463846FFF77EFF85F80C9005B0BDE8D5
:106CEC00F08322683146284600F0E1FBEFE7D4E957
:106CFC0000233146284600F0DAFBE8E7A36800934E
:106D0C003146D4E90023284600F0D1FBDFE7E368E5
:106D1C000193A36800933146D4E90023284600F080
:106D2C00C6FBD4E723690293E3680193A36800933D
:106D3C003146D4E90023284600F0B9FBC7E7636964
:106D4C00039323690293E3680193A368009331468C
:106D5C00D4E90023284600F0AAFBB8E708292DE95E
:106D6C00F74F80460E4617461C4639D8002593F837
:106D7C000C901D7319461046FFF74EFFDFF880A0EC
:106D8C00DFF880B0AE422ED918F8052059462046BF
:106D9C0000F08DFB0135082DF4D11849DFF868A0FF
:106DAC00DFF868B0204600F082FB0025AE421FD908
:106DBC0018F805200192104603F00EFD0028019AE8
:106DCC00594608BF2E22204600F071FB0135082DD4
:106DDC00ECD1012221463846FFF7FCFE84F80C90DA
:106DEC0003B0BDE8F08F5146204600F060FBD1E7C0
:106DFC005146204600F05BFBE8E700BF64AB0200A5
:106E0C0060AB02005AAB020062AB020066AB020040
:106E1C001FB50021039001AA44F20100CDE9011134
:106E2C0000F004F805B05DF804FB000010B572B674
:106E3C00FFF7BAFEFFF7C4FC0028FBD1104B114C36
:106E4C001149E41AE408240444F00100FFF714FE8D
:106E5C000E4B1B68DB0700D500BE0D4944F0020049
:106E6C00FFF70AFEBFF34F8F0A490B4BCA6802F4B7
:106E7C00E0621343CB60BFF34F8F00BFFDE700BF51
:106E8C0004AA02002CAA0200ECAB0200F0ED00E018
:106E9C00F8AB020000ED00E00400FA05024B4FF4E1
:106EAC003C6043F00103184710AC020038B50C4BA2
:106EBC000C4C4FF40032C3F8802001254FF4803382
:106ECC00C4F84833C4F808336560FFF7E7FF064B96
:106EDC00A56000241C60FFF7E1FF044B1C7038BD5B
:106EEC0000E100E000100140782700206927002015
:106EFC00F8B51F4B1F491B680025C1F84051C1F85C
:106F0C004451C1F84851C1F84C51C1F80051C1F875
:106F1C0004514BB3D1F8044517490968641A24F09D
:106F2C007F442F461A68A24209D8A41A15441A7C29
:106F3C00DE691AB1D3E905201F749047AEB90F4A28
:106F4C000F4B11781B788B4205D10133DBB2022B2E
:106F5C0008BF0023137012780A4B43F822500A4BD7
:106F6C004FF48012C3F80021F8BD3346DAE700BFB6
:106F7C007C27002000100140782700207527002076
:106F8C00742700206C27002000E100E02DE9F04F71
:106F9C00A24AA34913780978A24D994285B03CD0F6
:106FAC000133DBB2022B08BF002313709E49127809
:106FBC009E4B0F6853F822003B1823F07F430022AE
:106FCC000B602B6816461446944613B942B12B60DD
:106FDC0006E0196881420ED902B12B60091A1960BA
:106FEC0001272B68DFF84CA201934FF00008BEB9C3
:106FFC00DFF848B262E0401A0C44D968D3F81CE0C0
:10700C00C3F800C031B13A1922F07F42C3E9012123
:10701C00DE611E4673460122D7E700263746E0E7BD
:10702C003446F669804A63681268DFF814C2A068B7
:10703C00991A21F07F41614500F2A880014421603A
:10704C00012222742A680023C4E90133E361002A77
:10705C0040F0A5802C60CAE79BF802105A1CD2B2F3
:10706C0091428BF8002004BF00228BF800201822DC
:10707C0002FB03B32A6819799C68022977D003298B
:10708C0000F08180012919D1207CB8B9D3E9031211
:10709C00A2605A69E2609A69654BA2611B78002B69
:1070AC000CBF0B4603466360BCE78C4200F0948037
:1070BC008946C9690029F8D1002323749BF8003054
:1070CC009BF801209A42C7D12B68B8F1000F04D16C
:1070DC00019A9A4201D1002F43D0002B79D0D3F8DA
:1070EC0000A0544D504BD5F804751C68DFF8548142
:1070FC003E1B98F8003026F07F4603369BB94FF4C0
:10710C008033C5F84433C5F804334B4B4FF400328D
:10711C004FF00109C3F880211A60C5F80090FFF701
:10712C00BDFE88F80090B2452CBF5444A41924F03D
:10713C007F44C5F84045D5F80435DB1B23F07F436D
:10714C00E41B033324F07F44A3420AD9D5F8043559
:10715C00C5F84035FFF7A2FE374B4FF40032C3F8A9
:10716C000021334B00221A7005B0BDE8F08F114698
:10717C0091469FE71174D2690123002AFAD1002BA2
:10718C009CD02A609AE700231946F6E7D31A23F01D
:10719C007F43834234BFC31A0023236050E7216826
:1071AC001368994213D8591A1160E26152E7091A0F
:1071BC00D8691A4638B1034618688842F7D3401A82
:1071CC001860184613462160E061DC610FE7134636
:1071DC00F2E7FFF76BFEC4E74C4511D1D3692B6086
:1071EC0073B9DFF844E00120CDE90212CAF80800B7
:1071FC00CEF800300E4B1870FFF750FEDDE902128E
:10720C000B68C969C9F81C1011B1086803440B60FC
:10721C002B68934218BF4FF001084DE774270020EC
:10722C00752700207C270020782700206C27002061
:10723C00682700200010014000E100E05C260020DF
:10724C00FEFF7F006927002008B5FFF72FFE104BCB
:10725C0000200B2218809A700E4B18600E4B187081
:10726C000E4B18700E4B4FF48012C021C3F88021C6
:10727C0083F814131A6002F18042A2F56F22C2F84F
:10728C00080583F81113074BD2F804251A6008BDC2
:10729C005C2600207C270020742700207527002006
:1072AC0000E100E07827002070B5EFF3108672B68D
:1072BC000C4A946801239CB993600B4B0B4DD3F88B
:1072CC00801029401160C3F88050D3F884105160AD
:1072DC004FF0FF32C3F88420047006B962B670BD5B
:1072EC000370FAE78027002000E100E0FC06FFBDF8
:1072FC00084B9A6810B55AB150B9EFF3108172B6B9
:10730C00054A1C6814605C685460986001B962B6E8
:10731C0010BD00BF8027002000E100E001F01F023B
:10732C004B090121914000EB830000F01EB801F0E5
:10733C001F0301229A404B0900EB8300D14300F05C
:10734C002CB84B0901F01F0150F82300C84000F085
:10735C000100704710B5034653E8000F0A4643E896
:10736C00002494F0000FF7D110BD10B5034653E87C
:10737C00002F42EA010043E8000494F0000FF6D11C
:10738C0010BD10B5034653E8000F00EA010243E8B4
:10739C00002494F0000FF6D110BD10B5034653E84D
:1073AC00002F02EA010043E8000494F0000FF6D12C
:1073BC0010BD10B5034653E8002F02EB010043E863
:1073CC00000494F0000FF6D110BD10B5034653E83D
:1073DC00002FA2EB010043E8000494F0000FF6D15B
:1073EC0010BD0121FFF7C1BF0021FFF7CABF10B5C7
:1073FC0090B1D0E9012301689B1ADBB20A60013B12
:10740C00DBB2FF2B026802D10020107110BD116895
:10741C004C1C14600B70F2E70E20F7E737B50546ED
:10742C0000240DF107008DF80740FFF73DFF2A6897
:10743C006B68116899420ED9481E106011F8014C06
:10744C00EB68298A01FB0434AB6811791B1ADBB297
:10745C00994238BF13719DF80700FFF749FF20468A
:10746C0003B030BD37B5054600230DF107000C46BF
:10747C008DF80730FFF718FF2A681368591C116044
:10748C00E968641A298AB4FBF1F41C709DF80700B2
:10749C00FFF72EFF03B030BD826810B504462AB149
:1074AC0043690168006998470023A36010BD0EB4BE
:1074BC0003B5039921B104AB01AA019300F06EF856
:1074CC0002B05DF804EB03B07047826830B4046816
:1074DC00551C8560A154D0E901329A4202D330BCCC
:1074EC00FFF7DABF30BC70472DE9F84F9846DDE95D
:1074FC000A43154682460F460A464FF00109AA4236
:10750C000FD2C14538BFC14613F0010B01D16CB984
:10751C0000240126B8F1010F1BD908F1FF386E4386
:10752C00F8E709F10109B2FBF5F2E8E79B070ED584
:10753C00B8F1000F0CBF30262026A145E9D2013C42
:10754C0031465046FFF7C1FF002CF6D1E0E720266C
:10755C00F3E7B7FBF6F39D42E1D9DFF83C80B7FBCC
:10756C00F6F3504618F8031006FB1377FFF7ADFF40
:10757C003346AB42B6FBF5F6F1D2BBF1000F02D0AD
:10758C000CB1A14501D3BDE8F88F20215046013C38
:10759C00FFF79BFFF4E700BF16AC02002DE9F74F95
:1075AC00054617468846002900F0428118F8011B51
:1075BC0049B92B7B002B00F03B81284603B0BDE87A
:1075CC00F04FFFF769BF252940F0B780002698F8E7
:1075DC0000302D2B424608F1010823D0302B24D04B
:1075EC002B2B25D000242A2B02F1010123D13B683F
:1075FC001A1D1B683A601C440A4613782E2B26D1A0
:10760C0001324FF0000A104610F8011BA1F1300CAA
:10761C00BCF1090F1DD80A2303FB0A13A3F1300A8E
:10762C000246F0E746F00106D1E746F00206CEE747
:10763C0046F00406CBE711F8013CA3F13000092811
:10764C00DBD80A2202FB0434303C0A46CBE74FF06D
:10765C00000A12F8011B01F0FB0068289046F8D0D4
:10766C00782909D86F290CD8632962D022D825290A
:10767C0063D0582900F0888098F80030002B95D101
:10768C0097E770390829F7D801A353F821F000BF08
:10769C00177802008576020085760200A577020035
:1076AC0085760200837702008576020085760200DB
:1076BC0095770200642901D06929DDD13A68D2F8A6
:1076CC000090111D89EAE9723960A2EBE9724FF062
:1076DC00010B092A35DCD34538BFD3462CB1B9F19F
:1076EC00000F01DB720700D5013CB30702D5BAF1DC
:1076FC00000F03D0F00701D44CBB0024B9F1000FEC
:10770C002DDAC9F100092D212846FFF7DEFE06F01F
:10771C000302022A04D1BAF1000F01D11CBB0024D0
:10772C00CDE9004653460A2249462846FFF7DCFEBF
:10773C00A2E73B681A1D19783A602846FFF7C5FE88
:10774C009AE70A230BF1010BB2FBF3F2C1E7A34555
:10775C00D4D220212846013CFFF7B7FECCE77107B5
:10776C00D5D52B21D0E7A345DAD230212846013CD0
:10777C00FFF7ABFED2E73968CDE900460A1D3A6047
:10778C0053460A220968D0E739680A1D3A60CDE9E8
:10779C00004653461022F5E73B681A1D3A6016F076
:1077AC000106D3F8009028D1B9F1000F03D0484658
:1077BC0003F0CDF80646B44200D904BB09F1FF39F9
:1077CC0019F8011F00293FF457AF2846FFF77DFE3B
:1077DC00F6E728460136FFF778FE19F8061000295F
:1077EC00F7D1A642BFF448AF002C3FF445AF20219F
:1077FC002846013CFFF769FEF3E70026EDE7202160
:10780C002846013CFFF761FED5E73B681A1D3A603C
:10781C00302128461C68FFF758FE78212846FFF7D0
:10782C0054FE00220823CDE90032214610227CE7C9
:10783C0003B0BDE8F08F00BF2DE9F84FB0F806A0FB
:10784C004579D2F800B09DF828900AFB05F5043D67
:10785C0088460BEB0301A94203F1040488BFA5EB96
:10786C00030BB4FBFAF607460AFB1644C2F800B049
:10787C004EB9AAEB04055D4528BF5D46BBF1000F70
:10788C0004D1BDE8F88F3F68013EF1E7043408EB02
:10789C0006003C442A46B9F1000F0DD02146ABEB53
:1078AC00050B02F0D1FFDA452E443F6855464FF0E8
:1078BC00000428BF5D46E1E701462046EFE7FFF7ED
:1078CC0096BDF8B546790146721E054600239342D3
:1078DC002D6803D30024A64202D8F8BD0133F6E785
:1078EC000F682846FFF7BEFD01343946F3E72DE952
:1078FC00F843068ACD1C0746FFF790FD043E35443D
:10790C000446B5FBF6F5F0B14FF48073EDB283800D
:10791C00C680013D076081464FF00008A84512D291
:10792C003846FFF77BFD064648B163790133637136
:10793C0008F10108C9F8000007608146EEE720460F
:10794C00FFF7BFFF34462046BDE8F8830121043021
:10795C00FFF72FBD10B5012104460430FFF735FDAC
:10796C0010F0FF0F04D12046BDE81040FFF7A9BF6F
:10797C0010BD1FB503920022009203AAFFF75CFF13
:10798C0005B05DF804FB1FB503920122009203AA17
:10799C00FFF752FF05B05DF804FB41DF70470000B4
:1079AC00064B10B500241C70054B1C60BFF35F8F99
:1079BC000449054800F039F8204610BD94270020F2
:1079CC009827002030AC02008C27002007B500233C
:1079DC000DF107008DF80730FFF766FCF1EE103A59
:1079EC0023F09F03E1EE103ABFF35F8F094B402267
:1079FC00C3F884219DF80700FFF77AFC02F02CFDF8
:107A0C0020B1FFF7CAFF03B05DF804FB20BF40BFF5
:107A1C0020BFF8E700E100E0836800225A60C3E968
:107A2C0004229A60DA601A6070470B684A684360F7
:107A3C00934208BF0023016008BF4360704743684E
:107A4C0043B10268916852680B449342436004BF8F
:107A5C00002343607047000010B50D49A1F59472E6
:107A6C00914201D800200FE08C1AE30F03EBE403E2
:107A7C005B1002EBC30452F83330834205D802D2B8
:107A8C0004F10802ECE7606810BD2146E8E700BF8E
:107A9C0034B1020008B5FFF7DFFF024B002808BF26
:107AAC00184608BDF6AF020070B550B90E4D0F4C1C
:107ABC000026641B1423B4FBF3F4B44208D1002059
:107ACC0010E00368002BF1D0BDE87040DB6918476B
:107ADC002B6813B901361435EFE7DB692846984754
:107AEC000028F7D070BD00BF701D0020701D002055
:107AFC00054B1B68082B01BF044B1868B0FA80F0CB
:107B0C00400918BF002070473001001034010010EC
:107B1C0008B54FF080430022C3F80C21C3F81021A4
:107B2C00C3F838254FF0805203F54043D2F80414C3
:107B3C00C3F82015D2F80814C3F82415D2F80C1485
:107B4C00C3F82815D2F81014C3F82C15D2F8141455
:107B5C00C3F83015D2F81814C3F83415D2F81C1425
:107B6C00C3F84015D2F82014C3F84415D2F82414E5
:107B7C00C3F84815D2F82814C3F84C15D2F82C14B5
:107B8C00C3F85015D2F83014C3F85415D2F8341485
:107B9C00C3F86015D2F83814C3F86415D2F83C1445
:107BAC00C3F86815D2F84014C3F86C15D2F8442405
:107BBC00C3F87025FFF79CFF10B1384B384A1A6098
:107BCC00FFF796FF18B1374BFB22C3F81825FFF7C8
:107BDC008FFF48B13449354B0A681B6822F00F02FD
:107BEC0003F00F0313430B60FFF782FF18B1304B08
:107BFC004FF400721A604FF08043D3F80024D20780
:107C0C0044BF6FF00102C3F800242A4AD2F888302E
:107C1C0043F47003C2F88830BFF34F8FBFF36F8FFC
:107C2C004FF01023D3F80022002A03DBD3F80432E0
:107C3C00002B2FDA204B0122C3F80425D3F80024A3
:107C4C00002AFBD04FF010221221C2F80012D3F8F8
:107C5C000024002AFBD04FF010231222C3F8042278
:107C6C00154B1A46D3F800140029FBD00021C3F899
:107C7C000415D2F80034002BFBD0BFF34F8F0D4905
:107C8C000E4BCA6802F4E0621343CB60BFF34F8F14
:107C9C0000BFFDE70A4B0B4A1A6008BD8C5600402A
:107CAC004881030000F00040E40E00405802001030
:107CBC004096024000ED00E000E001400400FA05AF
:107CCC008C1D00200090D003074B1B5C1F2B86BF24
:107CDC00064903F01F034FF0A041012202FA03F3FF
:107CEC00C1F80835704700BF41B1020000030050D5
:107CFC0008B50020FFF7E8FF0120FFF7E5FF0220A1
:107D0C00FFF7E2FFBDE808400320FFF7DDBFC20725
:107D1C0010B504460CD54FF0A0430322C3F834270A
:107D2C00C3F83827C3F83C27C3F84027FFF7E0FF18
:107D3C00A3070AD54FF0A0430C22C3F82C27C3F895
:107D4C003027C3F86027C3F8642710BD38B5074C3B
:107D5C00051E04F1080318BF1C4623682BB11A68D2
:107D6C0022605B6828469847F7E738BDA4270020B7
:107D7C0020B9054B01225A70FFF7E8BF012802D148
:107D8C00014A9070F8E770479C27002020B9034BFC
:107D9C0001225A70FFF7DABF704700BF9C27002002
:107DAC0038B50B4C237883B90A486360A360236110
:107DBC00E36000F0D3F8054602F04EFB08B900F082
:107DCC00D9F801232370284638BD8525FBE700BF71
:107DDC009C2700207D7D020037B50B4C00230DF154
:107DEC0007008DF80730FFF75FFAE368013BE360AB
:107DFC00E56815B900F0D2F8A5709DF80700FFF7FB
:107E0C0077FA03B030BD00BF9C270020012813B5C2
:107E1C0008D003281CD018B9104B0122C3F88020BD
:107E2C0002B010BD0E4C00230DF107008DF8073089
:107E3C00FFF73AFA23780BB9FFF7B2FFE3689DF826
:107E4C0007000133E3600123A370FFF751FAE7E762
:107E5C0000F090F8FFF7C0FFE2E700BF00E100E0A0
:107E6C009C2700201FB503788DF8003043680193E0
:107E7C00037A8DF80830C368054A0393054B6846AE
:107E8C0053F8213052F82110984705B05DF804FBE7
:107E9C00B0270020B82700201FB503788DF80030DC
:107EAC004368019383688DF80830C368054A0393CF
:107EBC00054B684653F8213052F82110984705B00D
:107ECC005DF804FBB0270020B8270020F0B5194B53
:107EDC0090F800C0DFF86CE043F82C20164B1646E7
:107EEC000A6943F82C204B7F0EF80C300C460746E1
:107EFC000FCC89B06D460FC594E80F0085E80F00D4
:107F0C001EF80C30CDF810C04BB1002E0B4A694650
:107F1C0008BF3246381D00F0B1FC09B0F0BD002E90
:107F2C00074A694608BF324607F10C0000F092FA86
:107F3C00F3E700BFB8270020B0270020717E0200B5
:107F4C00A57E0200C027002000F18040002382B0F3
:107F5C00036003680193019B02B07047044A1379D4
:107F6C0023B9012110609180184670478520704715
:107F7C00C4270020084B1A68D20706D4C02283F805
:107F8C0000230122C3F880211A604FF080430122A4
:107F9C00C3F81825704700BF00E100E0044B012234
:107FAC001A604FF08042D2F81834DB03FBD47047D0
:107FBC000C000040124B1B6810B573B14FF480706D
:107FCC00FFF7C2FF4FF080430122C3F808230D4B8B
:107FDC00587910B95A711B6898470B4B1B6873B1D1
:107FEC004FF48270FFF7B0FF4FF080430222C3F8CA
:107FFC000823044BBDE810401B680120184710BD36
:10800C0000010040C42700200401004000F1804022
:10801C0000F5C040002382B0036003680193019B0C
:10802C0002B0704703681F2B83BF03F01F0303606C
:10803C0001484FF0A04070470003005007B5019075
:10804C0001A8FFF7EFFF019B00EB8300D0F800378E
:10805C0023F44033C0F80037D0F8003743EA01412D
:10806C00C0F8001703B05DF804FB00002DE9F04FD9
:10807C00002489B0CDE90244624D4FF48072012195
:10808C0002F1804303F5C04390B21B68012B06D16B
:10809C00D5F804330B4202D0FFF7B8FF0C4304327F
:1080AC00B2F5907F4FEA4101EAD1574B1B68012B87
:1080BC000ED14FF4BE70FFF7A9FF4FF0A04344F070
:1080CC000044D3F810350293504BD3F8103503937A
:1080DC0014F0FF0F1AD04E4F00250126344210D059
:1080EC00AB0003F1804303F5C043D3F81005D3F87C
:1080FC00101557F8253023B1C1F30141C0F3052009
:10810C0098470135082D4FEA4606E7D1002C75DA61
:10811C0004AF002304937B604FF0FF33CDE90633AB
:10812C00DFF8EC90DFF8EC800026354618F9012BCF
:10813C00531C4AD0C2F3C2000123D4B202F03F0B4D
:10814C0002F0070203FA02F208AB191811F8083C06
:10815C0013423AD009EB0B03A40993F9303059F8C8
:10816C0023A0BAF1000F08D1032C2ED117F800C0B0
:10817C004CEA020C07F800C001E0032CF6D001A871
:10818C00CDF804B0FFF74EFF019B11F8181C03F556
:10819C00E07C114250F82C00C0F3014005D00228BD
:1081AC0013D1032C0BD1214604E003280DD1032C51
:1081BC0005D102215846FFF741FF0135EDB2BAF166
:1081CC00000F02D021465846D0470136042EADD1BF
:1081DC00A5B14FF0A0430299D3F8102503F54073D5
:1081EC009142D3F8103502D10399994206D00292EC
:1081FC000393049A059B0692079393E709B0BDE895
:10820C00F08F00BF006000407C6100400003005014
:10821C00CC2700202C280020014B1B68184700BFDE
:10822C00382800200E4B984237B50C4602D000205F
:10823C0003B030BD00230DF107008DF80730FFF7B8
:10824C0033F8084B1D7915B901221C601A719DF881
:10825C000700FFF74DF8002DE9D01120E8E700BF2B
:10826C000020004038280020034B984201BF034BEC
:10827C0000221A601A717047002000403828002034
:10828C000023435082B043580193019B02B07047C6
:10829C000A4610B54FF48E71FFF7F2FF136A91681E
:1082AC00C95C136A01331362C0F81C1510BD8B69CD
:1082BC000A4610B54FF4847123B9FFF7E1FFD0F8EB
:1082CC00183510BDFFF7DCFF536AD168D0F81805DC
:1082DC00C854536A01335362F3E700001FB50123FE
:1082EC008DF80030044BCDE90110D3E9001268463B
:1082FC00904705B05DF804FB4028002030B54B4892
:10830C00D0F8043313F4007F85B005464DD0D0F877
:10831C002431002B49D04FF49271FFF7B1FF4FF489
:10832C000173C0F80833424B93F829200AB9012293
:10833C0042603E4902228DF80020D1F88024C1F819
:10834C00802403929A690292DA6801920022C3E9AE
:10835C0006226846D3E9001290473448D0F81C3105
:10836C005BB133490A6A4B699A420A464AD291F880
:10837C002830002B46D1FFF78BFF2C48D0F8443126
:10838C008BB14FF4A271FFF77BFF294B93F8292097
:10839C000AB1012202609A692AB10022586AD9688E
:1083AC009A61FFF79BFF05B030BDD5F804335B072E
:1083BC00D3D5D5F80831002BCFD01D4C1B48214606
:1083CC00FFF775FF636AA2699A422346C5D1E26939
:1083DC00E1684AB12369E3600023606AA261E3614A
:1083EC006362FFF77BFFB8E794F829200AB90122F2
:1083FC006A600E4A4FF40170C2F808030022586AF2
:10840C009A61EEE74FF48E710848FFF739FF516916
:10841C000029B2D00023029191688DF800300191AF
:10842C0053616846D2E900139847A6E70020004044
:10843C00402800201F2886BF00F01F00044B4FF07F
:10844C00A04300F5E070022243F82020704700BFE3
:10845C00000300502DE9F843674B057991462C2217
:10846C0002FB0532064692F82A200C469846002A52
:10847C0040F0BD8061490068FFF7D4FE0746002834
:10848C0040F0B78021684A1C10D01F2987BF5C4A76
:10849C0001F01F030B464FF0A0420120984003F55A
:1084AC00E073C2F80805032042F823006068431CFF
:1084BC000DD01F288BBF00F01F030346504A4FF00E
:1084CC00A04203F5E0734FF0000C42F823C0336870
:1084DC00A269C3F8242594F814C0627DBCF1010F85
:1084EC004CEA0202C3F86C25C3F81405C3F80C154A
:1084FC002BD1A168481C0DD01F298BBF01F01F0286
:10850C000A463F484FF0A04002F5E0724FF0000CD5
:10851C0040F822C0E068421C13D01F2887BF384A9D
:10852C0000F01F0C84464FF0A0424FF0010E0EFAE3
:10853C000CFE0CF5E07CC2F808E54FF0030E42F897
:10854C002CE0C3F80805C3F810152C236B4308EB7B
:10855C000302C2F80490226948F80320B9F1000F15
:10856C0032D03068227F4FF48E71FFF789FE30686D
:10857C004FF4A271FFF784FE33682249C3F8041349
:10858C00190B43F30733002BA8BF03F160404FEAEC
:10859C005313BCBF01F00F041B484FEA4212A8BF93
:1085AC0000F561404FEA8303D2B203F16043B4BFDC
:1085BC00025580F8002303F5614301F01F010122ED
:1085CC008A40C3F880211A6033680422C3F800255E
:1085DC002C2303FB05830022C3E9062283F8292000
:1085EC005A61012283F82A203846BDE8F88308270F
:1085FC00FAE71127F8E700BF4028002009830200A2
:10860C00000300508000020014ED00E02DE9F04161
:10861C0003680479244D0022C3F800252C2202FBA8
:10862C000452014652686AB1204AC3F8082343F346
:10863C000732C3F3043652090120B04020321C4EDD
:10864C0046F82200D3F80C05D3F81485D3F8086546
:10865C00D3F810754FF0FF329042C3F81425C3F8CD
:10866C000C25C3F80825C3F8102501D0FFF7E2FE4E
:10867C00B8F1FF3F02D04046FFF7DCFE7A1C02D077
:10868C003846FFF7D7FE731C02D03046FFF7D2FEF8
:10869C000868FFF7E9FD2C2303FB0454002384F83E
:1086AC002A306360BDE8F08140280020840202007B
:1086BC0000E100E02DE9F843204B07794FF02C093D
:1086CC0009FB0734054666699846002E33D10068CD
:1086DC006261A16026624FF48E7184F82860FFF706
:1086EC00CFFD2868012383602146FFF7D1FD636825
:1086FC00A14683B92868226A63699A4211D32B6810
:10870C00D3F81C21002AFBD00122DA602C2303FBB6
:10871C00078300225A613046BDE8F88394F828306C
:10872C003BB9D0F81C31002BF8D04946FFF7B0FD0F
:10873C00E1E70F26EAE71126EDE700BF402800200D
:10874C000023435082B043580193019B02B0704701
:10875C001FB501238DF80030054B8DF808000191F1
:10876C006846D3E90012904705B05DF804FB00BFE2
:10877C006C2800207FB5374AD2F82461002E47D0F0
:10878C0010464FF49271FFF7DBFF02238DF8003097
:10879C00D2F88034C2F880340393D2F83C358DF88B
:1087AC0008302D4BDA6801920022C3E90622684694
:1087BC00D3E9001290472748D0F844316BB14FF4FD
:1087CC00A271FFF7BDFF244B9A6932B100229A6166
:1087DC00D0F83C05D968FFF7BBFF1E48D0F8203114
:1087EC00A3B14FF49071FFF7ABFF1B4B5A696AB101
:1087FC00D0F84C158DF80810002299688DF80020DF
:10880C0001915A616846D3E90012904704B070BDDB
:10881C00D2F81031002BCED04FF488711046FFF7F0
:10882C008FFF0D4BD2F83C0599698842C3D1DC69A6
:10883C00D96864B1D2F8005225F02005C2F8005274
:10884C001A699C61DA60DE61FFF782FFB3E79C6115
:10885C00FAE700BF002000406C2800201F2886BFCC
:10886C0000F01F00044B4FF0A04300F5E070022213
:10887C0043F82020704700BF000300502DE9F84357
:10888C006B4B06799146242202FB0632044692F881
:10889C0020200D469846002A40F0C58065490068A6
:1088AC00FFF7C0FC0746002840F0BF802868421C38
:1088BC0010D01F2887BF604A00F01F0303464FF0FB
:1088CC00A0420121994003F5E073C2F80815032179
:1088DC0042F8231069684B1C0DD01F298BBF01F087
:1088EC001F030B46544A4FF0A04203F5E0734FF0C0
:1088FC00000C42F823C02368AA69C3F8242595F814
:10890C0014C06A7DBCF1010F4CEA0202C3F86C255D
:10891C00C3F80C05C3F814152BD1A968481C0DD04D
:10892C001F298BBF01F01F020A4643484FF0A0409D
:10893C0002F5E0724FF0000C40F822C0E868421CCF
:10894C0013D01F2887BF3C4A00F01F0C84464FF001
:10895C00A0424FF0010E0EFA0CFE0CF5E07CC2F8B2
:10896C0008E54FF0030E42F82CE0C3F80805C3F8F5
:10897C0010152423734308EB0302C2F804902A69F0
:10898C0048F80320B9F1000F3CD020682A7F4FF43F
:10899C008871FFF7D5FE20684FF49071FFF7D0FE79
:1089AC0020684FF49271FFF7CBFE20684FF4A27150
:1089BC00FFF7C6FE23682149C3F80413190B43F3D0
:1089CC000733002BA8BF03F160404FEA5313BCBF21
:1089DC0001F00F051A484FEA4212A8BF00F561409A
:1089EC004FEA8303D2B203F16043B4BF425580F81F
:1089FC00002303F5614301F01F0101228A40C3F8F3
:108A0C0080211A6023680822C3F80025242303FB65
:108A1C0006830022C3E906225A61012283F8202032
:108A2C003846BDE8F8830827FAE71127F8E700BFB6
:108A3C006C28002081870200000300501003020004
:108A4C0014ED00E02DE9F04103680479244D002277
:108A5C00C3F80025242202FB0452014652686AB175
:108A6C00204AC3F8082343F30732C3F304365209F0
:108A7C000120B04020321C4E46F82200D3F80C05E1
:108A8C00D3F81485D3F80865D3F810754FF0FF327E
:108A9C009042C3F80C25C3F81425C3F80825C3F875
:108AAC00102501D0FFF7DAFEB8F1FF3F02D04046A7
:108ABC00FFF7D4FE7A1C02D03846FFF7CFFE731CAA
:108ACC0002D03046FFF7CAFE0868FFF7CDFB24231F
:108ADC0003FB0454002384F820306360BDE8F0816C
:108AEC006C2800201003020000E100E001F060435C
:108AFC00B3F1005F2DE9F041064632D11B4B0779EB
:108B0C00242505FB073598466C6964BB6A610068CF
:108B1C00A9604FF49071FFF713FE4FF4AC713068FD
:108B2C00FFF70EFE33686A69A968C3F84415C3F8E9
:108B3C00482501229A606A6862B9D3F82021D3F8DB
:108B4C00584152B9002CF8D00F24242303FB07877B
:108B5C0000237B612046BDE8F081002C18BF0F2458
:108B6C00F3E71024F6E71124F4E700BF6C2800208B
:108B7C00032811D8012A0AD101290FD100F10E02C4
:108B8C00D2B20D4B00EB40001A5400207047012963
:108B9C00F7D0022904D049B1072070470022F8E72A
:108BAC00054B00EB400018444270EEE7024B00EB23
:108BBC00400018448270E8E79028002008B5012294
:108BCC0002210020FFF7D4FF08B1072810D107229B
:108BDC0002210120FFF7CCFF08B1072808D10021A2
:108BEC000A220846FFF7C4FF10B1072808BF00206F
:108BFC0008BD00000388102B10B502D0112B1ED01D
:108C0C0010BD1A4C2168B1B901220846FFF7B0FF1C
:108C1C0008B1072824D1072202210120FFF7A8FF61
:108C2C0008B107281CD1042202210020FFF7A0FF65
:108C3C0008B1072814D1236801332360E0E70B4AFD
:108C4C001368013B1360002BDAD1FFF7B7FF002844
:108C5C00D6D0074B1B68002BD2D0BDE8104018476C
:108C6C00034B1B68002BE6D09847E4E7A0280020B4
:108C7C009C2800206EDF704775DF704776DF7047E9
:108C8C008FDF70470146014801F041BAA42800204B
:108C9C000378062B03D1406808B1FEF7B9B87047CA
:108CAC000A8840F677239A4213B50C4615D10C4B23
:108CBC000C480D49C01AC008000440F00300019094
:108CCC00FDF7DAFEA38809490198033B9BB21A46CB
:108CDC0002B0BDE81040FDF7DCBE02B010BD00BF15
:108CEC0004AA02002CAA020067B1020083B10200A0
:108CFC0008B50020FEF7D8FE18B1064B01221A70F9
:108D0C0008BD054801F0D4F80028F9D0BDE80840AA
:108D1C00FEF77EB8C8280020CC2800201FB5038899
:108D2C001F2B044657D007D8112B2ED01D2B39D012
:108D3C00102B0FD004B010BD3B2B52D0562B50D063
:108D4C00212BF7D1002303A98088ADF80C30FFF755
:108D5C0097FF15E0254B26482649C01AC008000489
:108D6C0040F00300FDF788FEA1882348002201F0A3
:108D7C00DDFA08B1FEF74CF8A188204800F002FD9E
:108D8C000028D7D0FEF744F8D4E7184B18481C49F4
:108D9C00C01AC008000440F00300FDF76DFEFFF799
:108DAC00A7FFC7E7114B1248C01AC008154B0004A7
:108DBC00B3F87020D96E40F005000190FDF774FEF9
:108DCC00019894F91B201049FDF75AFE0F490198A0
:108DDC00FDF752FEAEE700F108018088FFF74CFF6B
:108DEC00CEE7A0881321FFF749FFC9E704AA0200C8
:108DFC002CAA0200ABB10200A4280020901D002078
:108E0C00B6B10200CC280020C4B10200CCB10200E3
:108E1C000238012806D8044B1A781AB100221A70AD
:108E2C00FFF766BF704700BFC8280020F8B5134B8A
:108E3C00134C1449144FE41AE4082404064644F075
:108E4C000300FDF719FE0722314644F00500FDF73B
:108E5C002BFE07223146384601F02AFA054660B14E
:108E6C001128F6D00246094944F00100FDF708FE2E
:108E7C002846BDE8F840FDF7CBBFF8BD04AA0200B8
:108E8C002CAA0200CFB10200A4280020DDB1020000
:108E9C0073B50B78012B06460D4651D0022B65D0CD
:108EAC00002B72D13A4B3B4C3B49E41AE4082404A6
:108EBC0044F003042046FDF7DFFD698805F10E023E
:108ECC00304601F033FA08B1FDF7A2FF304601F04D
:108EDC00CDF908B1FDF79CFF3049314D2046FDF727
:108EEC00CBFD3048FFF7A2FF2F492046FDF7C4FD0C
:108EFC004EF6602645F001054FF47A40A847013E36
:108F0C00FAD12A48FFF792FF29492046FDF7B4FD14
:108F1C002848FFF78BFF24492046FDF7ADFD4EF6A0
:108F2C0060264FF47A40A847013EFAD12248FFF759
:108F3C007DFF1F49204602B0BDE87040FDF79CBD87
:108F4C00134B144C8E680A7B1C490192E41AE408FA
:108F5C00240444F00300FDF78FFD019A314644F0E0
:108F6C00050002B0BDE87040FDF79EBD084B0948F6
:108F7C001349C01AC008000440F00300FDF77CFD43
:108F8C0002B0BDE87040FFF7B3BE02B070BD00BFC9
:108F9C0004AA02002CAA020006B202001AB20200B5
:108FAC00C0B202006A20002048B2020071200020EA
:108FBC004FB202005C200020632000205BB2020054
:108FCC00B6B102002DE9F843154C2378072B054662
:108FDC000E4621D8134F4FF00008B94607222946F8
:108FEC00384601F0FEFBC8B108F10108B8F1080FD2
:108FFC0007F10707F2D12378C3EBC30309EB030096
:10900C000722294601F020FC23780133DBB22370C0
:10901C0033700020BDE8F8830C20FBE70720F9E74C
:10902C00402900206429002008B5124B1978F1B1B1
:10903C00114B1248DA1D426003F10E02826003F1FB
:10904C001502C26003F11C02026103F123020360EA
:10905C00426103F12A023133C3618261FFF70AFED8
:10906C00034610B1FDF7D4FE0023184608BD0C23AF
:10907C00FBE700BF40290020642900204429002080
:10908C0010B538220021074801F007FC0021064BDF
:10909C0008461970FFF7EEFD044608B1FDF7B8FE5F
:1090AC00204610BD642900204029002030B54FF423
:1090BC00004187B00020FDF729FB08B1FDF7A8FEA1
:1090CC00FDF75AFAFEF7C0F808B1FDF7A1FE012032
:1090DC00FEF71DFE624800F01BFB08B1FDF798FE81
:1090EC00FEF75EFC08B1FDF793FE01F077F908B1CD
:1090FC00FDF78EFE002302A90120029301F0F6F980
:10910C0008B1FDF785FE02A801F0A2FA08B1FDF73F
:10911C007FFE5449544800F0CBFC08B1FDF778FEB3
:10912C005148172100F0D7FC08B1FDF771FE4F4BE9
:10913C004F48029302A901F035F808B1FDF768FE1B
:10914C001022002102A801F0A8FB0123494A4A4839
:10915C008DF80C3002A98DF8143000F04BFE08B1DC
:10916C00FDF756FE444800221F2100F025FE08B1F1
:10917C00FDF74EFE414A4048414C022100F0ACFD47
:10918C00404BE41AE408240444F00304054638B1C7
:10919C0002463D492046FDF773FC2846FDF738FE94
:1091AC00FFF76EFF08B1FDF733FE00238DF8073093
:1091BC00029B03F00102354B134302934CF6CC4354
:1091CC00ADF80C300DF10701CC2302A88DF80E3050
:1091DC00FFF7F8FE9DF807202D4905462046FDF7C0
:1091EC004FFC15B12846FDF713FEFFF71DFF08B124
:1091FC00FDF70EFE274D28492046FDF73DFC2B6858
:10920C0026499A792046FDF73BFC2B6823495A796D
:10921C002046FDF735FC2B6820491A792046FDF7CE
:10922C002FFC2B681D49DA782046FDF729FC2B68AA
:10923C001A499A782046FDF723FC2B6817495A786F
:10924C002046FDF71DFC16492046FDF715FCFFF7DF
:10925C004FFDFDF7B5FA0028FBD1FEF7B7FBF8E799
:10926C00918C0200AD8C0200B42800209D8E02006F
:10927C00A42800209D8C0200CC280020C7B202003C
:10928C002CAA020004AA02006BB2020002CCCCCCC5
:10929C0074B202004429002084B20200E6B4020039
:1092AC0091B2020070B5C0B14AB116880024B44224
:1092BC0003D305196D789D4208D0A14201D8002036
:1092CC000BE0055D01352C44A4B2F0E7A142F6D9C0
:1092DC00A31C1380005D013880B270BDF7B500236C
:1092EC000646ADF80630144612B9002003B0F0BDA6
:1092FC0009230DF10602FFF7D5FFBDF806700546F0
:10930C00002FF2D00028F0D0204601F020FBA8421C
:10931C000246EAD1F119204601F063FAB0FA80F066
:10932C004009E3E773B50191019C06466CB1002539
:10933C002C46294601A8FEF704F818B106EB4403A5
:10934C0001349D800135142DF3D13046346002B0C8
:10935C0070BD00002DE9F04703888488112B8CB078
:10936C0005463CD01A2B3FD0102B17D1284EB36892
:10937C00DB43009371686846FEF70FF8009901A86B
:10938C00FFF7D0FF0DF108094FF00008019B98453D
:10939C0007D3132C13D90420FDF73AFD0CB0BDE80C
:1093AC00F08739F802AB00270137514606EB8700EE
:1093BC00FDF7BDFF1D2FF7D108F10108E6E71548B1
:1093CC002146FDF7ABFF14482146FDF7A7FFEB7BC9
:1093DC00012BE3D011482146FDF7A0FFDEE70D4835
:1093EC002146FDF7A4FFD9E7037A0D481F2B4FEA5E
:1093FC001315214606D9FDF791FF022D0948214688
:10940C00EAD1EEE7FDF793FF06482146E9E700BFF6
:10941C009C290020A4290020A0290020A829002094
:10942C00AC290020B02900209BDF70479DDF7047DE
:10943C009EDF704730B50B4B19680B4B00229142E5
:10944C0001D1002009E09D788478A54206D11D88C1
:10945C000488A54202D1054B186830BD0132043393
:10946C00EDE700BF1C2A0020242D0020142A002028
:10947C0070B590F8C63216467622A0B002FB0300F7
:10948C000D46FFF7D7FF044660B17C22002101A8EE
:10949C0001F003FA01238DF80430ADF80660029553
:1094AC0001A8A04720B070BD2DE9F74F8A4690F86F
:1094BC00C612019193467622074601FB0200FFF784
:1094CC00B9FF804670B3194E3568052D2AD8184C53
:1094DC00019904EBC5197622EB0102FB0171A9F885
:1094EC0002B009F10400009301F0AEF9BAF1000FDB
:1094FC00009BC9F87C8014BF00220222E2540D4B61
:10950C001A680135954235601D460BD10027E36F73
:10951C00204698472B6801379F4204F18004F6D30C
:10952C000023336003B0BDE8F08F00BF202D002076
:10953C00202A00201C2A002037B50246084692F843
:10954C00C53292F8C642BBB1013B7621DBB2614316
:10955C00122505FB031313445B8A01339BB2ADF850
:10956C000430762303FB042201A91389ADF80630DD
:10957C00FFF75CFF03B030BD762303FB0423DB88CD
:10958C00EDE7000070B54FF433720E46002104462F
:10959C0001F083F9114BA4F8CA6200251D60104B31
:1095AC0084F8C9521B6884F8C65284F8C5522360EB
:1095BC00224601213046FFF737FF112806D020B98B
:1095CC00012384F8C73284F8C80270BD012384F8E3
:1095DC00C73284F8C8322846F7E700BF202D002098
:1095EC00242D002070B5194A90F8C9321268013345
:1095FC00DBB2934204460D4680F8C9324FF00006A8
:10960C0021D290F8C63280F8C5620133DBB27621E4
:10961C0013FB01F180F8C63242180D4850F8233084
:10962C006350284601211671FFF7FEFE014648B132
:10963C0084F8C7622A462046FFF71AFF054B03221F
:10964C001A705D8070BD80F8C762F7E71C2A002095
:10965C00242D0020202A00202DE9F34705467623EF
:10966C0095F8C64295F8C56214FB03F410462A1906
:10967C0006EBC60392F804C004EB4303771C0A33D1
:10968C0067452B4413D005F11C0A02F1220E0CF194
:10969C00FF384FF01209A244F4B2A4450BD9B045DF
:1096AC001C8919D11389A34225D100231CE01B89E5
:1096BC001289934205D101230B70002002B0BDE842
:1096CC00F0870133ADF80430ADF8062000230B70A1
:1096DC0001A9FFF7ADFEF1E709FB06F301343EF8F3
:1096EC000370BC420DD1534495F8C542013485F842
:1096FC00C5420136D0E70134ADF80440ADF8063070
:10970C00E4E7013FADF80440ADF80670DEE7000079
:10971C0058B1074A00231360064A01211170064A0A
:10972C001360064A1060184670470E20704700BF41
:10973C001C2A0020182A0020202D0020142A00208A
:10974C0010B5044680B10C4B1B787BB1FFF772FE51
:10975C0070B90A4A1368052B0CD80949246841F8DA
:10976C0023400133136010BD0E20FCE70820FAE7FC
:10977C000020F8E70420F6E7182A00201C2A002015
:10978C00242D002050B1084A12784AB1074A1268B9
:10979C0032B190F8C7322BB9FFF7F4BE0E207047E8
:1097AC000820704711207047182A00201C2A00201E
:1097BC002DE9FF410C460546E0B1D9B1934B1B781E
:1097CC00C3B10388322B65D017D8112B00F00E8152
:1097DC00302B30D094F8C83263B12B88303B9BB21D
:1097EC001F2B07D8B4F8CA32A988994202D1204657
:1097FC00FFF7C8FE04B0BDE8F081332BEAD18288B4
:10980C00B1F8CA329342E5D1C68891F8C6C291F834
:10981C00C572002E00F0AE80762101FB0C4C7B1C37
:10982C009CF8041000268B428DF80F6000F0D2805B
:10983C0084F8C53293E08388B1F8CA229A42C9D120
:10984C00C388F3B991F8C632C068762113FB01F3D3
:10985C00E118E0502B69C1F8063011462046FFF79D
:10986C006BFE01460028B5D0002384F8C732AA88C5
:10987C002046FFF7FDFD664B03221A70AA885A801A
:10988C00A8E700212046FFF70FFEA9882046FFF726
:10989C00A9FE9FE78288B1F8CA329A429AD1C3884E
:1098AC00002B58D191F8C672762317FB03F701EB06
:1098BC000708837A98F804603344062B26DC88F872
:1098CC000430334603EBC30207EB420205F10C06EE
:1098DC002244002198F80400834206F10A0602F1A2
:1098EC00120227D31222013B02FB034394F8C62237
:1098FC0076213B4401FB0242598A138999422AD2B0
:10990C00062828D0A98884F8C502A7E7062388F87A
:10991C0004304048404BCA5B4049C01AC0080004A0
:10992C0040F002000190FDF7ABF83D490198FDF7BE
:10993C00A3F8C6E73046013350F80ACD42F808CCFC
:10994C00D0F804C042F804CC00891080518091807A
:10995C00D1801181BEE7002684F8C562AA880DF17A
:10996C000F012046FFF778FE0146002838D084F816
:10997C00C7627CE7762303FB0CF1122303FB07136E
:10998C00B0F80AE023447645BFF446AFC189A1F58F
:10999C002451082908D8DFE801F014170507070738
:1099AC0007071A0081899982998A39B1D98A29B114
:1099BC00198B19B1598B00297FF42EAF0136063063
:1099CC00E1E78189D982EFE781891983ECE7818905
:1099DC005983E9E701238DF80F30AA88012151E75B
:1099EC009DF80F30002B3FF4F5AEF6E78288B1F806
:1099FC00CA329A427FF4EEAE002381F8C73281F866
:109A0C00C8324FF6FF73A1F8CA32E3E6182A0020D9
:109A1C00202A002034AA020004AA0200CDB20200BF
:109A2C0013B3020090DF7047A5DF7047B5DF7047B6
:109A3C007FB50023ADF80810ADF80A106A4602A9EC
:109A4C00064603930093ADF80430FFF7EBFF054691
:109A5C0000B3124B124CE41AE408FEF71BF8240472
:109A6C0044F0010403460F4932462046FDF711F835
:109A7C00BDF80020BDF8023052EA030103D00A49B8
:109A8C002046FDF706F8BDF804201AB10749204618
:109A9C00FCF7F6FF284604B070BD00BF04AA020014
:109AAC005CAA020079B30200C3B3020002B4020044
:109ABC0078B14FF0171303601B2303711723C38076
:109ACC00038141F61B3200230161438182811846D8
:109ADC0070470E20704720B1172904D14180002017
:109AEC0070470E20704707207047000013B50346DF
:109AFC0080880C46B8B91A88242A00F0958014D8AE
:109B0C00112A71D0232A00F09D80102A3BD0A37A11
:109B1C004BB1E1880020FFF787FF002840F09880C8
:109B2C004FF48073638102B010BD3A2A64D0552A79
:109B3C00EDD1DB88C988A072172B38BF17238B4255
:109B4C0028BF0B462381FFF771FF60B1FDF7A2FF21
:109B5C00484B4949024649481B1ADB081B0443F091
:109B6C000100FCF78DFFE37A002BD0D12369002B89
:109B7C00CDD040F6772200922289ADF804206946B8
:109B8C0020469847C3E7DB7B0A790A73012B13D075
:109B9C00022B14D0E18823898B4205D20020FFF7D9
:109BAC0043FF70B90123E372217B637B8B42AED2FE
:109BBC000020FFF73DFFAAE70B88E380EAE74B881C
:109BCC00FBE7112802D10123A372EDE7FDF762FF39
:109BDC00284B2B49024629481B1ADB081B0443F06F
:109BEC000100FCF74DFFDFE71723CB800B8141F61B
:109BFC001B3348818B818AE75B89CA88934228BFD3
:109C0C001346172B0A6938BF17230B814AB1C97A3F
:109C1C0039B140F677210091ADF804306946204601
:109C2C0090470023638172E71A7A0B694A73002B01
:109C3C003FF46DAF4DF67A218DF8050000918DF84B
:109C4C0004209CE7197A237B994228BF1946B0E778
:109C5C0011283FF468AFFDF71DFF064B084902467B
:109C6C0006481B1ADB081B0443F00100FCF708FF35
:109C7C0059E700BF5CAA020089B4020004AA0200E2
:109C8C0058B402008ADF70478BDF70478CDF704757
:109C9C0030B590F82C3089B004460D46D3B190F80D
:109CAC0036300193FFF7F0FF1422002103A800F0D7
:109CBC00F4FD019B04F12E0204F13801A81CFFF7FE
:109CCC00E5FF06238DF80C30049018B1A36C0BB192
:109CDC0003A8984709B030BD73B515460446002853
:109CEC0064D0002A62D021B1022925D0072002B00D
:109CFC0070BD104600F02BFE0138C0B21F2857D89B
:109D0C0094F820600EB10420F1E72946204600F0BB
:109D1C00F7FD0028EBD094F82000431C84F8203089
:109D2C0004EB4014284600F012FE29460246204659
:109D3C0000F08AFD0020DAE790F82930002BE2D100
:109D4C0006222946233000F04CFD0028CFD0AB1D55
:109D5C006A4613F8011D02F8011BAB42F9D19DF8BC
:109D6C0000309B09013BDBB2022B9CBF114AD05C3B
:109D7C0094F8293004F12201C3EBC30388BF0320FC
:109D8C00CA5C60F34702CA54002294F82930A85CDC
:109D9C00C3EBC3030B4413440132062A5870F4D1AD
:109DAC0094F82930013384F82930C3E70E209EE75C
:109DBC000C209CE7F2B4020098B1CB0613D0002320
:109DCC0080F8213011F0020318BF012380F82A30EB
:109DDC00CB0744BF012380F8213080F82B200020D2
:109DEC0070470E2070470720704790F83800C0F37A
:109DFC00C0007047F8B50D460446002855D0826463
:109E0C0000212C2200F049FD002D3AD02B7984F84A
:109E1C002C302B7B84F836302B68FBB104F13802E4
:109E2C0003F1080718685968164603C60833BB4285
:109E3C003246F7D1186830609B88B380AA68C2B1EB
:109E4C001368C4F82E305368C4F8323004F14C0354
:109E5C00E3661F23A4F870300020F8BDA36B03F059
:109E6C00E30343F4200343F48273A3635023E363BB
:109E7C00E4E70623E385182323634FF4C873A38612
:109E8C00E4E7A36B84F82C5003F0E30343F42003C2
:109E9C0043F48273A3635023E3630623E3851823FF
:109EAC0023634FF4C873A386D0E70E20D5E70000D8
:109EBC0010B5044686B048B31422002101A800F066
:109ECC00ECFCFFF7E1FE2046FFF78FFF30B1A36CEF
:109EDC0023B101228DF8042001A8984704F16C01EC
:109EEC0004F13800FFF7CEFE044630F008000BD02A
:109EFC000748084B08491B1ADB081B0443F00100F8
:109F0C002246FCF7BDFD204606B010BD0E20FBE737
:109F1C0004AA02004CAA0200C5B402002DE9F04FBD
:109F2C0005468BB035F8083B1D2B06460C4622D057
:109F3C0008D8102B00F0D3801B2B00F0B8800BB08E
:109F4C00BDE8F08F202BFAD114220DEB020000217A
:109F5C0000F0A3FCA26C002AF1D0286869680523E4
:109F6C008DF8143006AB03C33834297A0994197070
:109F7C0005A89047E3E7142200210DEB020000F046
:109F8C008CFC04F1380320460993FFF72EFF04F1F3
:109F9C006C0B78B102238DF8143005A8A36C0695D0
:109FAC00984759460020FFF76DFE29462046FFF7DB
:109FBC006FFEC4E794F82A8094F8213094F82BA013
:109FCC000193B8F1000F4FD094F8293004F1220915
:109FDC00074606F10B01FAB2934203D84FF0000882
:109FEC00474617E0B27A99F800005208B2EB500FCE
:109FFC0036D1062209F101000393029100F0F1FB26
:10A00C00DDE9021360BB9DF81C3043F002038DF8B0
:10A01C001C3001274FF00109019B5BB194F82030F3
:10A02C00B18C09F101095FFA89F9224604EB43135B
:10A03C009A421CD10695BAF1000F2ED0B94532D1F7
:10A04C0000238DF8143029462046FFF721FEA36C1F
:10A05C000BB105A8984759460020FFF713FE6EE791
:10A06C00013709F10709B6E74746C146D4E7306A1C
:10A07C000191CDE90223FFF731F9029A0199039B73
:10A08C0020320028D4D09DF81C30013743F0010356
:10A09C00FFB28DF81C308046CCE7B8F1000F02D02F
:10A0AC008DF814A0CFE703238DF81430CFE71422DA
:10A0BC000DEB0200002100F0F0FB327A012A7FF454
:10A0CC003EAFA36C002B3FF43AAF042138348DF82B
:10A0DC00141009948DF8182005A898472FE714221E
:10A0EC0000210DEB020000F0D8FB07238DF8143093
:10A0FC00B388ADF81C3004F138030993A36C0695B2
:10A10C00002BE9D11BE7A3DF704762DF7047F0B586
:10A11C000C4687B014220546002101A800F0BDFBB7
:10A12C00227852BBA388012B27D1A1792B78994295
:10A13C0023D194F808C0BDF81260BDF81400BDF826
:10A14C001670122111FB0C4123469446994216D1EC
:10A15C00BCF1000F01D0ADF816701AB1ADF8126059
:10A16C00ADF81400EB6843B16288ADF8062000220C
:10A17C008DF8042001A92846984707B0F0BDB3F824
:10A18C000EE0BEF1020F04D0BEF1030F05D0123366
:10A19C00DCE7DF8A4FF0010CF9E7DE8A188B01222D
:10A1AC00F5E70000F0B5154B87B002AA04460D4642
:10A1BC0003F1100C174618685968164603C6083385
:10A1CC0063453246F7D1BCB1B5B121463846FFF7ED
:10A1DC009CFF78B923788DF806300123ADF8043054
:10A1EC004FF6FF7363802B68E360A080208101A889
:10A1FC00FFF7A6FA07B0F0BD0E20FBE736B502005C
:10A20C007FB503460846F9B1F3B14A884FF6FF71A2
:10A21C008A4202D09988914216D11988112916D0F8
:10A22C00392911D182887AB1598991420CD1C268ED
:10A23C0052B101218DF8041003F11001DB89039157
:10A24C008DF8103001A9904707B05DF804FB9B888E
:10A25C009342F9D1C368002BF6D002228DF804206A
:10A26C004FF6FF72428001A99847EDE71FB5D8B1B0
:10A27C0043884FF6FF72934218D0C288B2B10121C5
:10A28C00ADF8001040F20111ADF80410ADF8062045
:10A29C0001A94FF4003218460292CDF80CD0FFF70A
:10A2AC0032FF05B05DF804FB0E20FAE70820F8E752
:10A2BC001FB588B3142A0CD9184B19481949C01A60
:10A2CC00C008000440F00200FCF7D6FB072004B0E5
:10A2DC0010BD43884FF6FF74A3420BD10F4B1048AF
:10A2EC001149C01AC008000440F00200FCF7C4FB7E
:10A2FC000820ECE70089ADF8060000204FF48174CB
:10A30C00ADF808000391184601A9ADF80440ADF86A
:10A31C000A20FFF7F8FEDAE70E20D8E704AA0200BD
:10A32C0044AA0200FFB4020011B5020048B14180FA
:10A33C002AB15388C38013888380938803810020BB
:10A34C0070470E20704710DF7047000013B50446AD
:10A35C0009496846FDF769FB019808B902B010BDC0
:10A36C00D0E900212046904718B16846FDF767FBFD
:10A37C00F2E71120F2E700BF54B5020013B5044612
:10A38C0007496846FDF751FB019B0BB902B010BDA4
:10A39C002046D3E9002190476846FDF750FBF3E7D0
:10A3AC006CB502000B4991F816335A09EC23134192
:10A3BC00DB0706D5084B9A683AB94FF480030B605B
:10A3CC00704742F20200FCF723BD1A6842F4800287
:10A3DC001A60704700E100E080270020F7B5194FA4
:10A3EC003C7864BB184E012520463570FFF7AEFF54
:10A3FC00112821D02046FFF7C1FF144B8DF80340E4
:10A40C00186801900DF10300FCF74EFF104901A8EC
:10A41C00FFF799FF0446B0FA80F0400938709DF8B8
:10A42C000300FCF765FF3CB90A4B34701C70FFF756
:10A43C00B9FF2846FFF7A2FF204603B0F0BD082461
:10A44C00FAE700BF3D2D00203C2D00204EB5020048
:10A45C00396E02003E2D0020014B1878704700BF6A
:10A46C003D2D002007B508496846FDF7DEFA019B33
:10A47C0013B903B05DF804FBD3E90020904768469C
:10A48C00FDF7DDFAF3E700BF60B50200FFF7EABFA6
:10A49C0060DF704769DF704761DF704730B5114B83
:10A4AC001B7891B0E3B1104D34240DF1020103A8D7
:10A4BC00ADF80240FFF7F0FF70B9294601A8FDF78F
:10A4CC00B4FA029B002BF0D003A8D3E900219047EB
:10A4DC0001A8FDF7B4FAF4E7052801D0FCF798FCC5
:10A4EC0011B030BD3F2D0020B0B7020030B505468D
:10A4FC0085B00C46002900F099804D4B0B600C2266
:10A50C00002101A800F0C9F901238DF8063022685A
:10A51C008DF80450062301A92020ADF80830FFF770
:10A52C00B9FF60B1FDF7B6FA424B434902464348C6
:10A53C001B1ADB081B0443F00100FCF7A1FA0C22E8
:10A54C00002101A800F0A9F900238DF8053022683C
:10A55C0040F2011301A94020ADF80630FFF79AFF35
:10A56C0060B1FDF797FA334B3549024633481B1A55
:10A57C00DB081B0443F00100FCF782FA0C220021DB
:10A58C0001A800F08AF90A2322688DF8043001A989
:10A59C000120FFF77FFF60B1FDF77CFA254B2949BD
:10A5AC00024626481B1ADB081B0443F00100FCF78B
:10A5BC0067FA0C22002101A800F06FF9F823226839
:10A5CC00019301A9A120FFF765FF60B1FDF762FAC5
:10A5DC00184B1D49024619481B1ADB081B0443F093
:10A5EC000100FCF74DFA0C22002101A800F055F9EE
:10A5FC009DF8043022686FF3000301A9A0208DF8A8
:10A60C000430FFF747FF034668B1FDF743FA094BE7
:10A61C000E49024609481B1ADB081B0443F00100D3
:10A62C00FCF72EFA0023184605B030BD0E23FAE7CE
:10A63C00701D002074AA020078B5020004AA020062
:10A64C00BEB502000AB6020056B60200A7B602005A
:10A65C0073B505460668FFF71BFF2B68B34204462B
:10A66C001DD91A481A4B1B491B1ADB081B0443F053
:10A67C0002000190FCF700FA2B681749019832464A
:10A68C00FCF707FA4FF080532A68D3F80C311349C2
:10A69C0001989B0203F100539A1AFCF7F1F92CB9BB
:10A6AC000F4B01221A70204602B070BD2046FDF7F8
:10A6BC00F1F9074B0B49024604481B1ADB081B0433
:10A6CC0043F00100FCF7DCF9EDE700BF04AA02003F
:10A6DC0074AA0200FAB6020029B702005AB70200A7
:10A6EC003F2D002084B702004BDF70471FB50D4C87
:10A6FC0001A8FFF7F9FF70B9214602A8FDF795F9FB
:10A70C00039B002BF4D00198D3E90021904702A8B9
:10A71C00FDF795F9F4E7052801D0FCF779FB04B0B7
:10A72C0010BD00BFC8B702007F2805D8034B185CCA
:10A73C00034B5B5C1840704700207047E0B7020089
:10A74C0060B80200A0F16103192B98BF2038704744
:10A75C00A0F14103192B98BF203070477F2805D8F2
:10A76C00034B185C034B5B5C184070470020704730
:10A77C00E0B7020060B80200A0F16103192B98BF8A
:10A78C0020387047A0F14103192B98BF2030704737
:10A79C007F299ABF017001206FF02E0070475AB1CB
:10A7AC000A787F2A0AD800B102600021196059602A
:10A7BC00501A18BF01207047002070476FF02E0010
:10A7CC007047000008B5034B5B689B681B68984793
:10A7DC0008BD00BF7820002008B50921FFF7F2FF63
:10A7EC0008BD7AB370B414460F2A15D902460B462D
:10A7FC0040EA010515F0030F01D0013C0EE01946AB
:10A80C0010460432043306680D68AE4204D110467B
:10A81C001946043C042CF2D8013C0ED00A460346DF
:10A82C000444114618460133013206780D78AE42C5
:10A83C0003D118461146A342F3D100780B78C01A05
:10A84C0070BC704700207047844640EA010313F047
:10A85C00030F18D18446202A0BD32DE9F007B1E859
:10A86C00F807A0E8F807A2F12002202AF7D2BDE8E9
:10A87C00F007042A07D351F8043B40F8043BA2F13B
:10A88C000402042AF7D2002A05D011F8013B00F883
:10A89C00013B013AF9D1604670478446002A2DD01D
:10A8AC0010F0030F04D000F8011B013A26D0F7E793
:10A8BC00C9B241EA012141EA0141202A12D3A2F195
:10A8CC0020022DE9F0030B460C460D460E460F46B2
:10A8DC0088468946A0E8FA03203AFBD2BDE8F0038B
:10A8EC0020320BD0042A05D340F8041B043A05D0BF
:10A8FC00042AF9D200F8011B013AFBD160467047DB
:10A90C0010F0030F19D111F0030F16D12DE97000BF
:10A91C004FF001364FF0803350F8044B51F8045B84
:10A92C00AC4205D1A4EB060525EA04051D40F3D085
:10A93C00A0F10400A1F1040170BC10F8012B11F876
:10A94C00013BD21A01D1002BF7D11046704700F110
:10A95C00010110F0030F11D010F8012B002A23D0A5
:10A96C0010F0030F0AD010F8012B002A1CD010F0A5
:10A97C00030F03D010F8012B002A15D02DE970001D
:10A98C004FF001324FF0803350F8044BA4EB02052A
:10A99C0025EA04051D4000D1F6E7A0F1040070BCC7
:0EA9AC0010F8012B002AFBD1A0EB0100704730
:10A9BC00997D0200000000001D8E020000000000C6
:10A9CC006193020000000000018C020000000000F6
:10A9DC00299F0200CC280020BD970200901D00206A
:10A9EC00F99A0200B42800200DA20200A42800202D
:08A9FC00298D0200000000009B
:10AA04004BB102000000000051B102000000000040
:10AA140058B10200000000005CB102000000000018
:10AA240061B102000000000016AB02000000030345
:10AA34006DB3020000000303F5B402000000030339
:10AA44002CB5020000000303E9B402000000030374
:10AA540045B1020000000000B8B402000000030386
:10AA640034B102000000030346B5020000000303F2
:10AA7400A1B7020000000303BCB7020000000303F7
:08AA840026AC020000000000F6
:10AA8C00D020002098210020A0210020D8200020D8
:04AA9C00180000009E
:10AAA000A9A4020000000000F9A6020000000000B6
:08AAB000197E02000000000005
:10AAB800E8AA020000000000F4AA0200841D002099
:10AAC800FFFFFFFFFFFFFFFFFFFFFFFFFFFFFFFF8E
:10AAD80000000000000000000000D6010601000090
:10AAE800ED640200516502008D64020075617274A4
:10AAF8005F6C6F675F6261636B656E640042616380
:10AB08006B656E647320666C75736865640061704C
:10AB180070000000C42500207F00000044260020AB
:10AB28001B5B306D002573001B5B313B33316D00BF
:10AB380025734C6F67732064726F7070656420288A
:10AB480025642925730D0A003C25733E2025733A98
:10AB58002000202530327800202020007C0025634A
:10AB6800001B5B313B33306D001B5B313B33326D77
:10AB7800001B5B313B33336D001B5B313B33346D62
:10AB8800001B5B313B33356D001B5B313B33366D4E
:10AB9800001B5B313B33376D007761726E696E67FE
:10ABA80000696E666F0064656275670028AB020015
:10ABB80069AB020030AB020071AB020079AB020056
:10ABC80081AB020089AB020091AB020099AB020095
:10ABD80000000000F2AB0200A1AB0200A9AB02002A
:10ABE800AEAB0200466174616C206572726F7200D0
:10ABF80053797374656D2072657365740000000085
:10AC080000000000000000000338FDD87047303114
:10AC18003233343536373839414243444546707704
:10AC2800725F6D676D74000004AA020004AA020036
:10AC3800040000004E52465F5355434345535300AA
:10AC48004E52465F4552524F525F5356435F4841FA
:10AC58004E444C45525F4D495353494E47004E525E
:10AC6800465F4552524F525F534F465444455649EA
:10AC780043455F4E4F545F454E41424C4544004E5C
:10AC880052465F4552524F525F494E5445524E41CB
:10AC98004C004E52465F4552524F525F4E4F5F4DE9
:10ACA800454D004E52465F4552524F525F4E4F54EB
:10ACB8005F464F554E44004E52465F4552524F52E2
:10ACC8005F4E4F545F535550504F52544544004EB9
:10ACD80052465F4552524F525F494E56414C494485
:10ACE8005F504152414D004E52465F4552524F52BD
:10ACF8005F494E56414C49445F5354415445004EB8
:10AD080052465F4552524F525F494E56414C494454
:10AD18005F4C454E475448004E52465F4552524F8D
:10AD2800525F494E56414C49445F464C4147530097
:10AD38004E52465F4552524F525F494E56414C491A
:10AD4800445F44415441004E52465F4552524F526F
:10AD58005F444154415F53495A45004E52465F454E
:10AD680052524F525F54494D454F5554004E52462A
:10AD78005F4552524F525F4E554C4C004E52465F03
:10AD88004552524F525F464F5242494444454E0045
:10AD98004E52465F4552524F525F494E56414C49BA
:10ADA800445F41444452004E52465F4552524F520E
:10ADB8005F42555359004E52465F4552524F525FBB
:10ADC800434F4E4E5F434F554E54004E52465F45DB
:10ADD80052524F525F5245534F5552434553004EBE
:10ADE80052465F4552524F525F4D4F44554C455F56
:10ADF8004E4F545F494E495449414C495A454400C5
:10AE08004E52465F4552524F525F4D555445585F1A
:10AE1800494E49545F4641494C4544004E52465FAD
:10AE28004552524F525F4D555445585F4C4F434B16
:10AE38005F4641494C4544004E52465F4552524F89
:10AE4800525F4D555445585F554E4C4F434B5F46E6
:10AE580041494C4544004E52465F4552524F525F5D
:10AE68004D555445585F434F4E445F494E49545FD2
:10AE78004641494C4544004E52465F4552524F5256
:10AE88005F4D4F44554C455F414C52454144595FD5
:10AE9800494E495449414C495A4544004E52465F2F
:10AEA8004552524F525F53544F524147455F4655A2
:10AEB8004C4C004E52465F4552524F525F415049EA
:10AEC8005F4E4F545F494D504C454D454E54454497
:10AED800004E52465F4552524F525F4645415455C7
:10AEE80052455F4E4F545F454E41424C4544004EDB
:10AEF80052465F4552524F525F494F5F50454E444C
:10AF0800494E47004E52465F4552524F525F445297
:10AF1800565F5457495F4552525F4F5645525255F6
:10AF28004E004E52465F4552524F525F4452565F52
:10AF38005457495F4552525F414E41434B004E5270
:10AF4800465F4552524F525F4452565F5457495FCD
:10AF58004552525F444E41434B004E52465F455264
:10AF6800524F525F424C455F495053505F52585FB1
:10AF7800504B545F5452554E4341544544004E5231
:10AF8800465F4552524F525F424C455F49505350BD
:10AF98005F4348414E4E454C5F414C5245414459F0
:10AFA8005F455849535453004E52465F4552524FDD
:10AFB800525F424C455F495053505F4C494E4B5F7E
:10AFC800444953434F4E4E4543544544004E524620
:10AFD8005F4552524F525F424C455F495053505F54
:10AFE800504545525F52454A454354454400556EC5
:10AFF8006B6E6F776E206572726F7220636F646517
:10B0080000000000000000003CAC0200010000004D
:10B0180048AC02000200000066AC02000300000019
:10B0280087AC0200040000009AAC02000500000092
:10B03800ABAC020006000000BFAC02000700000035
:10B04800D7AC020008000000EFAC020009000000C5
:10B0580007AD02000A00000020AD02000B0000004E
:10B0680038AD02000C0000004FAD02000D000000DA
:10B0780063AD02000E00000075AD02000F00000075
:10B0880084AD02001000000098AD0200110000001D
:10B09800AFAD020012000000BEAD020013000000B8
:10B0A800D3AD020080000000E7AD0200810000007F
:10B0B80008AE02008200000024AE020083000000F7
:10B0C80040AE0200840000005EAE02008500000071
:10B0D8007FAE020086000000A4AE020090000000CF
:10B0E800BBAE020091000000D9AE02009200000041
:10B0F800F7AE0200008200000CAF020001820000DF
:10B108002AAF02000282000046AF0200008400005D
:10B1180062AF02000184000086AF020002840000D2
:10B12800B0AF020003840000D5AF02006E72665F04
:10B138006673746F72616765000D0E0F10636C6F34
:10B14800636B00434C4F434B004750494F544500F5
:10B1580050525300554152540055415254450041F4
:10B168005454204D54552065786368616E67652096
:10B17800636F6D706C657465642E00426C65204E5B
:10B188005553206D61782064617461206C656E6729
:10B1980074682073657420746F20307825582825CA
:10B1A800642900436F6E6E65637465642E0044699C
:10B1B80073636F6E6E65637465642E0052535349F2
:10B1C8003A2025640D0A0053656E64696E67206431
:10B1D8006174612E004661696C65642073656E64F4
:10B1E800696E67204E5553206D6573736167652ED0
:10B1F800204572726F7220307825782E20004469BD
:10B2080073636F7665727920636F6D706C657465B2
:10B218002E00436F6E6E656374656420746F2064DE
:10B2280065766963652077697468204E6F72646912
:10B2380063205541525420536572766963652E0028
:10B2480064656C61792E0064656C617920646F6E49
:10B25800652E00526563656976696E67206461745E
:10B26800612E006572726F722D2564006164646CD2
:10B27800697374206E756D3A202575005B414444EE
:10B28800524C4953545D3A2000426C696E6B7920E8
:10B2980043454E5452414C206578616D706C652071
:10B2A800737461727465642E000000000000000071
:10B2B80000000000000000000338FDD8704702506D
:10B2C80087F88FCCEF4E6F7420656E6F75676820B6
:10B2D800737061636520666F722063686172616371
:10B2E800746572697374696373206173736F6369DA
:10B2F8006174656420776974682073657276696320
:10B308006520307825303458202100496E637265F5
:10B3180061736520424C455F474154545F44425F26
:10B328004D41585F434841525320746F2062652055
:10B3380061626C6520746F2073746F7265206D6F25
:10B348007265206368617261637465726973746998
:10B35800637320666F722065616368207365727617
:10B368006963652100626C655F64625F6469736329
:10B378000073645F626C655F6761705F64617461CC
:10B388005F6C656E6774685F7570646174652829A1
:10B3980020287265717565737429206F6E20636F3C
:10B3A8006E6E656374696F6E2030782578207265DB
:10B3B8007475726E65642025732E0054686520725A
:10B3C80065717565737465642054582F52582070E0
:10B3D80061636B6574206C656E677468206973209F
:10B3E800746F6F206C6F6E672062792025752F252A
:10B3F80075206F63746574732E00546865207265D8
:10B408007175657374656420636F6D62696E6174CC
:10B41800696F6E206F6620545820616E6420525800
:10B42800207061636B6574206C656E677468732047
:10B43800697320746F6F206C6F6E672062792025A6
:10B4480075206D6963726F7365636F6E64732E0028
:10B4580073645F626C655F67617474635F6578636A
:10B4680068616E67655F6D74755F72657175657328
:10B478007428292072657475726E65642025732E90
:10B488000073645F626C655F67617474735F65788D
:10B498006368616E67655F6D74755F7265706C79FE
:10B4A80028292072657475726E65642025732E00D4
:10B4B8006E72665F626C655F676174740073645F67
:10B4C800626C655F6761705F7363616E5F737461FF
:10B4D80072742072657475726E6564203078257890
:10B4E80000626C655F7363616E00000201626C65E7
:10B4F8005F6C62735F6300436F6E74656E74207473
:10B508006F6F206C6F6E672E00436F6E6E6563748D
:10B51800696F6E2068616E646C6520696E76616C17
:10B5280069642E00626C655F6E75735F63009ECA06
:10B53800DC240EE5A9E093F3A3B50000406E6E721B
:10B54800665F73646800010000070000B0AA02008B
:10B55800B0AA020008000000A0AA0200B0AA0200D7
:10B5680008000000B0AA0200B8AA02000800000003
:10B5780073645F626C655F6366675F7365742829CF
:10B588002072657475726E6564202573207768650E
:10B598006E20617474656D7074696E6720746F20B5
:10B5A80073657420424C455F434F4E4E5F43464798
:10B5B8005F4741502E0073645F626C655F63666726
:10B5C8005F73657428292072657475726E656420CE
:10B5D8002573207768656E20617474656D70746971
:10B5E8006E6720746F2073657420424C455F474135
:10B5F800505F4346475F524F4C455F434F554E544B
:10B608002E0073645F626C655F6366675F73657461
:10B6180028292072657475726E65642025732077F9
:10B6280068656E20617474656D7074696E672074E6
:10B638006F2073657420424C455F434F4D4D4F4E0C
:10B648005F4346475F56535F555549442E00736420
:10B658005F626C655F6366675F7365742829207233
:10B66800657475726E6564202573207768656E2031
:10B67800617474656D7074696E6720746F2073658A
:10B688007420424C455F47415454535F4346475FDB
:10B69800415454525F5441425F53495A452E0073F6
:10B6A800645F626C655F6366675F736574282920F1
:10B6B80072657475726E6564202573207768656E8F
:10B6C80020617474656D7074696E6720746F20737F
:10B6D800657420424C455F47415454535F43464785
:10B6E8005F534552564943455F4348414E47454499
:10B6F8002E00496E73756666696369656E742052BB
:10B70800414D20616C6C6F636174656420666F7273
:10B718002074686520536F66744465766963652E86
:10B72800004368616E6765207468652052414D204A
:10B738007374617274206C6F636174696F6E2066D4
:10B74800726F6D203078257820746F2030782578D6
:10B758002E004D6178696D756D2052414D207369D9
:10B768007A6520666F72206170706C6963617469B4
:10B778006F6E20697320307825782E0073645F62BD
:10B788006C655F656E61626C6528292072657475E9
:10B79800726E65642025732E006E72665F7364682E
:10B7A8005F626C6500000000CCA9020004AA0200D8
:10B7B800080000006E72665F7364685F736F6300F1
:10B7C800BCA90200CCA90200080000004300000048
:10B7D800504F5349580000002020202020202020CE
:10B7E80020682828282820202020202020202020E9
:10B7F8002020202020202020481010101010101089
:10B808001010101010101010848484848484848490
:10B8180084841010101010101081818181818101A1
:10B828000101010101010101010101010101010100
:10B83800010101101010101010828282828282028F
:10B8480002020202020202020202020202020202D0
:10B858000202021010101020000703200417020132
:10B868000857104080000000D4B70200D8B8020082
:10B87800ECB9020053756E004D6F6E00547565008B
:10B888005765640054687500467269005361740016
:10B89800000000004A616E00466562004D6172005A
:10B8A800417072004D6179004A756E004A756C00EE
:10B8B80041756700536570004F6374004E6F7600E2
:10B8C8004465630000000000414D00504D00000039
:10B8D80010BA02000CBA02000CBA02000CBA02003C
:10B8E8000CBA02000CBA02000CBA02000CBA020030
:10B8F8000CBA02000CBA0200FFFFFFFFFFFFFFFFB8
:10B90800FFFFFFFFFFFF00004CB902007CB80200F8
:10B9180088B902009CB80200D0B8020030B9020011
:10B92800E0B902003CB90200256D2F25642F257966
:10B93800000000002561202562202565202554206F
:10B948002559000053756E646179004D6F6E64610E
:10B95800790054756573646179005765646E657321
:10B96800646179005468757273646179004672691C
:10B978006461790053617475726461790000000034
:10B988004A616E7561727900466562727561727995
:10B99800004D6172636800417072696C004D617995
:10B9A800004A756E65004A756C7900417567757354
:10B9B800740053657074656D626572004F63746FCF
:10B9C800626572004E6F76656D62657200446563EC
:10B9D800656D62657200000025483A254D3A255389
:10B9E8000000000035A7020051A702005DA7020071
:10B9F80069A7020085A7020091A702009DA702007F
:0ABA0800ABA70200000000002E00B2
:10BA14000000000000200040000000000020004062
:10BA24000000000000000000FF0000000090D003B0
:10BA34000000000000000000000000000000000002
:10BA440000000000000000000000000000000000F2
:10BA540000000000000000000000000000000000E2
:10BA640000000000000000000000000000000000D2
:10BCF40000000000000000000000FFFFAB0004FF94
:10BD0400312101AB0004FF312100AB0004FF3109F4
:10BD140001AB0004FF31090070B8020070B80200E2
:0CBD240070B8020070B8020070B8020095
:040000032000635D19
:00000001FF
